:0D15E900256400C0F9A4B0999282F88090AA
:1015B20002080000020A0000020C0000020E0000F5
:0415C2000210000013
:1013FC008E168F177FC87E00121440AD17AC167F67
:10140C00031215558E088F097FC87E00121440AD4B
:10141C0017AC167F021215558E0A8F0B7FC87E00F3
:10142C00121440AD17AC167F011215558E0C8F0D92
:04143C007FC87E00E7
:10144000E4FDFCC3ED9FEC9E5015E4FBFA0BBB00E2
:0F145000010AEB64644A70F50DBD00010C80E4E5
:01145F00226A
:080F26008C2E8D2F8A308B31D7
:100F2E00EF4E7003020FD5753BFF753C15753DE90D
:100F3E008E3E8F3F7B007A00793412085C753BFF42
:100F4E00753C15753DE9852E3E852F3F7B007A0059
:100F5E00793512085C753BFF753C15753DE985309A
:100F6E003E85313F7B007A00793612085C753BFF77
:100F7E00753C15753DE985323E85333F7B007A0021
:100F8E00793712085C753B00753C00753D357B006A
:100F9E007A007934121460753B00753C00753D364D
:100FAE007B007A007934121460753B00753C007535
:100FBE003D377B007A00793412146012143C7B00AA
:100FCE007A0079340210A3E52F452E6077753BFF2A
:100FDE00753C15753DE9852E3E852F3F7B007A00C9
:100FEE00793512085C753BFF753C15753DE985300A
:100FFE003E85313F7B007A00793612085C753BFFE7
:10100E00753C15753DE985323E85333F7B007A0090
:10101E00793712085C753B00753C00753D367B00D8
:10102E007A007935121460753B00753C00753D37BA
:10103E007B007A00793512146012143C7B007A0022
:10104E0079358051E53145306058753BFF753C155B
:10105E00753DE985303E85313F7B007A0079361249
:10106E00085C753BFF753C15753DE985323E853351
:10107E003F7B007A00793712085C753B00753C00A7
:10108E00753D377B007A00793612146012143C7B62
:10109E00007A0079361210BD8E188F197FC87E0027
:0E10AE00800912143C85321885331912144043
:0110BC002211
:100D7D00850E32850F33AB0DAA0CAD0BAC0AAF0946
:020D8D00AE08AE
:080D8F008C2E8D2F8A308B3170
:100D9700EF4E7003020E3E753BFF753C15753DE93E
:100DA7008E3E8F3F7B007A00793412085C753BFFDB
:100DB700753C15753DE9852E3E852F3F7B007A00F2
:100DC700793512085C753BFF753C15753DE9853033
:100DD7003E85313F7B007A00793612085C753BFF10
:100DE700753C15753DE985323E85333F7B007A00BA
:100DF700793712085C753B00753C00753D357B0003
:100E07007A007934121460753B00753C00753D36E5
:100E17007B007A007934121460753B00753C0075CD
:100E27003D377B007A00793412146012143C7B0042
:100E37007A007934020F0CE52F452E6077753BFF5A
:100E4700753C15753DE9852E3E852F3F7B007A0061
:100E5700793512085C753BFF753C15753DE98530A2
:100E67003E85313F7B007A00793612085C753BFF7F
:100E7700753C15753DE985323E85333F7B007A0029
:100E8700793712085C753B00753C00753D367B0071
:100E97007A007935121460753B00753C00753D3654
:100EA7007B007A00793512146012143C7B007A00BB
:100EB70079358051E53145306058753BFF753C15F4
:100EC700753DE985303E85313F7B007A00793612E2
:100ED700085C753BFF753C15753DE985323E8533EA
:100EE7003F7B007A00793712085C753B00753C0040
:100EF700753D377B007A00793612146012143C7BFB
:100F0700007A0079361210BD8E1A8F1B7FC87E00BB
:0E0F1700800912143C85321A85331B121440D7
:010F250022A9
:1014B8008E108F117F327E00121440850A1C850B16
:1014C8001D121440851C08851D09121440850C1C2A
:1014D800850D1D121440851C0A851D0B12144085AC
:1014E8000E1C850F1D121440851C0C851D0D121431
:1014F8004085101C85111D121440851C0E851D0F7A
:031508000214408A
:06154F00AD17AC16E4FF2D
:10155500AB05AA048F828E83E5821582AE83700265
:1015650015834E60117C007D0AAF03AE02120C6438
:10157500AA06AB0780E2AE02AF037C007D0A120C1F
:0615850064AE04AF052274
:10139200D293D292D291D290C297C296C295C2945F
:1013A20020900A7F077E001214B812143C20910A82
:1013B2007F047E001214B812143C20920A7F017E30
:1013C200001214B812143C20932FE4F512F513F511
:1013D20014F515F508F509F50AF50BF50CF50DF5FB
:1013E2000EF50FF510F511F518F519F51AF51BF5AF
:0A13F20016F5177F64FE1214402266
:10150B00D293D292D291D290C297C296C295C294E4
:10151B0020900A7F087E001214B812143C20910A06
:10152B007F057E001214B812143C20920A7F027EB3
:10153B00001214B812143C209309E4FFFE1214B8E5
:04154B0012143C2218
:10131F00D293D292D291D290C297C296C295C294D2
:10132F0020900A7F097E001214B812143C20910AF3
:10133F007F067E001214B812143C20920A7F037E9F
:10134F00001214B812143C209338850E32850F33D7
:10135F00AB0DAA0CAD0BAC0AAF09AE08120F2612DB
:10136F00143CE4F512F513F514F515F508F509F528
:10137F000AF50BF50CF50DF50EF50FF510F511122D
:03138F00144022E5
:10120700D293D292D291D290C297C296C295C294EB
:1012170020901B120D7D12143CAC1AAD1BAE18AFFB
:1012270019120C641213FC12154F8E0E8F0F20919A
:101237001B120D7D12143CAC1AAD1BAE18AF191260
:101247000C521213FC12154F8E0E8F0F20921D1287
:101257000D7D12143CC3E519951BF517E518951A72
:10126700F51612140412154F8E0E8F0F20931C12B1
:101277000D7D12143CE519251BF517E518351AF5F0
:0C1287001612140412154F8E0E8F0F2249
:10116B0078227C007D007BFF7A1579EC7E007F0A6C
:10117B00120C2CE4F512F513F514F515F508F50919
:10118B00F50AF50BF50CF50DF50EF50FF510F51140
:10119B00D297D296D295D294C293C292C291C29058
:1011AB00209405121392801620950512150B800EB4
:1011BB0020960512131F800620970312120775B095
:1011CB00F774222509F8E6F5A07F017E0012144082
:1011DB0075B0FE7422250BF8E6F5A012144075B01D
:1011EB00FD7422250DF8E6F5A012144075B0FB74C2
:0C11FB0022250FF8E6F5A01214408094A5
:0300000002129356
:0C129300787FE4F6D8FD75814B0212DA7A
:100B5C00E709F608DFFA8046E709F208DFFA803E7B
:100B6C0088828C83E709F0A3DFFA8032E309F60868
:100B7C00DFFA8078E309F208DFFA807088828C83D0
:100B8C00E309F0A3DFFA806489828A83E0A3F60884
:100B9C00DFFA805889828A83E0A3F208DFFA804C5E
:100BAC0080D280FA80C680D4806980F28033801035
:100BBC0080A680EA809A80A880DA80E280CA80339E
:100BCC0089828A83ECFAE493A3C8C582C8CCC58316
:100BDC00CCF0A3C8C582C8CCC583CCDFE9DEE780E6
:100BEC000D89828A83E493A3F608DFF9ECFAA9F065
:100BFC00EDFB2289828A83ECFAE0A3C8C582C8CCBB
:100C0C00C583CCF0A3C8C582C8CCC583CCDFEADED3
:100C1C00E880DB89828A83E493A3F208DFF980CC35
:100C2C0088F0EF60010E4E60C388F0ED2402B4042E
:100C3C000050B9F582EB2402B4040050AF232345D5
:060C4C008223900BAC7343
:100C5200EF8DF0A4A8F0CF8CF0A428CE8DF0A42EB6
:020C6200FE2270
:100C6400C2D5EC30E709B2D5E4C39DFDE49CFCEEAB
:100C740030E715B2D5E4C39FFFE49EFE120CF2C325
:100C8400E49DFDE49CFC8003120CF230D507C3E420
:060C94009FFFE49EFE221A
:10080000E547243BF8E60547227838300702783B75
:10081000E475F001120D47020C9A2000EB7F2ED2F6
:10082000008018EF540F2490D43440D4FF30040BD0
:10083000EF24BFB41A0050032461FFE5486002159D
:1008400048054BE54B7002054A30070D7838E475D2
:10085000F001120D47EF020CE002158B7403D20772
:100860008003E4C207F5478B388A39893AE4F548B2
:10087000F54AF54BE54860077F2012083B80F57587
:1008800049FFC201C200C202C203C205C206C208B9
:10089000120809FF700D3007057F0012084CAF4B9E
:1008A000AE4A22B4255FC2D5C204120809FF24D083
:1008B000B40A00501A75F00A784830D50508B6FF1A
:1008C0000106C6A426F620D5047002D20380D924DE
:1008D000CFB41A00EF5004C2E5D204020A4CD20190
:1008E00080C6D20080C0D20280BCD2D580BAD205E8
:1008F00080B47F2012083B2002077401B5480040F5
:10090000F1120800FF12083B020874D208D20680D8
:1009100095120800FB120800FA120800F94A4B7001
:1009200006791D7A0B7BFF20022EE548602A7E00A7
:100930008E82758300120CB360060EEE654970F06E
:10094000C2D5EBC0E0EAC0E0E9C0E0EE120A93D005
:10095000E0F9D0E0FAD0E0FB120C9AFF60AAEBC0FD
:10096000E0EAC0E0E9C0E012083BD0E02401F9D0A1
:10097000E03400FAD0E0FBE5490460DCD549D980D9
:10098000877BFF7A0A798FD202809C791080027966
:1009900008C206C2088008D2D5790A8004790AC242
:1009A000D5E549047002F549E4FAFDFEFF1208009E
:1009B000FC7B08200113120800FD7B1030000A1296
:1009C0000800FE120800FF7B20EC3382D592D55040
:1009D00013C3E43000069FFFE49EFEE42001039D64
:1009E000FDE49CFCE4CBF8C201EC700CCFCECDCC86
:1009F000E824F8F870F38017C3EF33FFEE33FEED11
:100A000033FDEC33FCEB33FB994002FB0FD8E9EBF1
:100A1000300105F8D0E0C448B201C0E00AEC4D4E08
:100A20004F78207B0070C2EAB5490040BCC0E0129C
:100A30000A95D0F0D0E0200104C4C0E0C4B201C0E7
:100A4000F0120824D0F0D5F0EB020874120D57090B
:100A50001153098B5808E24C08DE42098F4F099761
:0F0A60004409974908F743099D550981460981C3
:100A6F00450981470B3D5008E62D08EA2E090D2B4D
:100A7F0008EE23090B200B262A08A64800000905BB
:100A8F003F3F3F00790AA2D5200314300509B91062
:100A9F00020404B9080104A2D52006025001042063
:100AAF0002689202B548005034C0E07F203003192D
:100ABF007F30A20272067205500F120AECC202C2F8
:100ACF0006C205C2087F30800F300503E9C0E0126F
:100ADF00083B300503D0E0F9D0E0B548CC3005171E
:100AEF007F30B9100C12083B7F583004077F788095
:100AFF0003B9080312083B3002057F2D02083B7F24
:100B0F00202008F87F2B2006F322920280CF286E38
:100B1F00756C6C2900D2011208003001F8C20178FF
:100B2F004830D50108F60208A62D5043495812083F
:100B3F00002403B405004001E4900B389312082CF5
:0D0B4F00743A12082CD20375480402098B79
:101460008B388A39893A8B3E8A3F8940AB38053AB6
:10147000E53AAA397002053914F9120C9A70ED7424
:10148000FF253AF53A74FF3539F539AB3B053DE5B3
:101490003DAA3C7002053C14F9120C9AFFAB3805CA
:1014A0003AE53AAA397002053914F9EF120CE070E6
:0814B000DAAB3EAA3FA940227D
:1010BD008B388A39893AAB38AA39A93A120C9AFF7A
:1010CD001215C7500D7401253AF53AE43539F53945
:1010DD0080E4D200AB38AA39A93A120C9AFF642BDE
:1010ED006004EFB42D1BAB38053AE53AAA3970020E
:1010FD00053914F9120C9A642D6003D38001C39243
:10110D0000E4F53BF53CAB38AA39A93A120C9AFF2D
:10111D001215DA5036AB38AA39A93A120C9AFF33A8
:10112D0095E0FEEF24D0FBEE34FFFAAE3BAF3C7CF6
:10113D00007D0A120C52EF2BF53CEE3AF53B740193
:10114D00253AF53AE43539F53980BB300006AE3B2A
:0E115D00AF3C8009C3E4953CFFE4953BFE22C5
:10129F0002116BE493A3F8E493A34003F68001F2E9
:1012AF0008DFF48029E493A3F85407240CC8C33350
:1012BF00C4540F4420C8834004F456800146F6DF1F
:1012CF00E4800B01020408102040809015B2E47EE8
:1012DF00019360BCA3FF543F30E509541FFEE49314
:1012EF00A360010ECF54C025E060A840B8E493A3DB
:1012FF00FAE493A3F8E493A3C8C582C8CAC583CA06
:10130F00F0A3C8C582C8CAC583CADFE9DEE780BEBD
:0115C6000024
:100C9A00BB010689828A83E0225002E722BBFE0258
:090CAA00E32289828A83E493228B
:100CB300BB010CE58229F582E5833AF583E02250F6
:100CC30006E92582F8E622BBFE06E92582F8E22240
:0D0CD300E58229F582E5833AF583E493225A
:100CE000BB010689828A83F0225002F722BBFE01F3
:020CF000F322ED
:100CF200BC000BBE0029EF8DF084FFADF022E4CCE6
:100D0200F875F008EF2FFFEE33FEEC33FCEE9DECAE
:100D1200984005FCEE9DFE0FD5F0E9E4CEFD22EDF4
:100D2200F8F5F0EE8420D21CFEADF075F008EF2F3E
:100D3200FFED33FD4007985006D5F0F222C398FD2F
:050D42000FD5F0EA22CC
:100D4700FAE6FB0808E6F925F0F618E6CA3AF622AD
:100D5700D083D082F8E4937012740193700DA3A32B
:100D670093F8740193F5828883E47374029368603F
:060D7700EFA3A3A380DF3F
:10158B00EFB40A07740D121596740A309811A899C6
:10159B00B8130CC2983098FDA899C298B811F630C0
:0715AB0099FDC299F5992298
:0F15DA00EFC394304007EF943A50028001C322D0
:1015C700EFC394094005EF940E4003BF2003D38077
:0315D70001C3222B
:00000001FF
